{
  "contractName": "Practice",
  "abi": [
    {
      "constant": true,
      "inputs": [
        {
          "name": "",
          "type": "address"
        }
      ],
      "name": "buyers",
      "outputs": [
        {
          "name": "id",
          "type": "uint256"
        },
        {
          "name": "user",
          "type": "string"
        },
        {
          "name": "debt",
          "type": "bool"
        }
      ],
      "payable": false,
      "stateMutability": "view",
      "type": "function",
      "signature": "0x97a993aa"
    },
    {
      "constant": false,
      "inputs": [
        {
          "name": "_isExist",
          "type": "bool"
        },
        {
          "name": "_id",
          "type": "uint256"
        },
        {
          "name": "_user",
          "type": "string"
        },
        {
          "name": "_debt",
          "type": "bool"
        }
      ],
      "name": "RegisterPerson",
      "outputs": [],
      "payable": false,
      "stateMutability": "nonpayable",
      "type": "function",
      "signature": "0xbf7d1a1e"
    },
    {
      "constant": true,
      "inputs": [
        {
          "name": "ins",
          "type": "address"
        }
      ],
      "name": "getDebtBuyer",
      "outputs": [
        {
          "name": "",
          "type": "bool"
        }
      ],
      "payable": false,
      "stateMutability": "view",
      "type": "function",
      "signature": "0xb98e4844"
    },
    {
      "constant": false,
      "inputs": [],
      "name": "BuyEnergy",
      "outputs": [
        {
          "name": "",
          "type": "int256"
        }
      ],
      "payable": true,
      "stateMutability": "payable",
      "type": "function",
      "signature": "0x15bf1d61"
    }
  ],
  "bytecode": "0x60806040526702c68af0bb14000060005560018054600160a060020a0319163317905534801561002e57600080fd5b506104fc8061003e6000396000f3fe6080604052600436106100615763ffffffff7c010000000000000000000000000000000000000000000000000000000060003504166315bf1d61811461006657806397a993aa14610080578063b98e48441461014a578063bf7d1a1e1461019e575b600080fd5b61006e610263565b60408051918252519081900360200190f35b34801561008c57600080fd5b506100c0600480360360208110156100a357600080fd5b503573ffffffffffffffffffffffffffffffffffffffff166102f3565b604051808481526020018060200183151515158152602001828103825284818151815260200191508051906020019080838360005b8381101561010d5781810151838201526020016100f5565b50505050905090810190601f16801561013a5780820380516001836020036101000a031916815260200191505b5094505050505060405180910390f35b34801561015657600080fd5b5061018a6004803603602081101561016d57600080fd5b503573ffffffffffffffffffffffffffffffffffffffff166103a1565b604080519115158252519081900360200190f35b3480156101aa57600080fd5b50610261600480360360808110156101c157600080fd5b81351515916020810135918101906060810160408201356401000000008111156101ea57600080fd5b8201836020820111156101fc57600080fd5b8035906020019184600183028401116401000000008311171561021e57600080fd5b91908080601f01602080910402602001604051908101604052809392919081815260200183838082843760009201919091525092955050505035151590506103d0565b005b60008061026f336103a1565b905080156102815760009150506102f0565b60005434106102e4576001546000805460405173ffffffffffffffffffffffffffffffffffffffff90931692833190910180156108fc0292909190818181858888f193505050501580156102d9573d6000803e3d6000fd5b5060019150506102f0565b60029150506102f0565b505b90565b60026020818152600092835260409283902080546001808301805487519281161561010002600019011695909504601f810185900485028201850190965285815290949193909290919083018282801561038e5780601f106103635761010080835404028352916020019161038e565b820191906000526020600020905b81548152906001019060200180831161037157829003601f168201915b5050506002909301549192505060ff1683565b73ffffffffffffffffffffffffffffffffffffffff166000908152600260208190526040909120015460ff1690565b83156103db57600080fd5b60408051606081018252848152602080820185815284151583850152336000908152600283529390932082518155925180519293926104209260018501920190610442565b50604091909101516002909101805460ff191691151591909117905550505050565b828054600181600116156101000203166002900490600052602060002090601f016020900481019282601f1061048357805160ff19168380011785556104b0565b828001600101855582156104b0579182015b828111156104b0578251825591602001919060010190610495565b506102ee926102f09250905b808211156102ee57600081556001016104bc56fea165627a7a723058203538031d7f1d113a9aa2e2794846b30fbb105171c1967b667af228acfccdfd240029",
  "source": "pragma solidity ^0.5;\n\ncontract Practice{\n    \n    uint cost = 0.2 ether;\n    address payable owners = address(uint160(msg.sender));\n /**   function Prueba() public {\n        address payable owners;\n        owners=msg.sender;\n    }**/\n    \n    struct Person {\n        uint id;\n        string user;\n        bool debt;\n    }\n    \n    mapping(address=> Person)public buyers;\n    \n    function RegisterPerson(bool _isExist, uint _id, string memory _user, bool _debt) public{\n        if(_isExist){\n             revert();\n        }else{\n            buyers[msg.sender]=Person({\n                id: _id,\n                user: _user,\n                debt: _debt\n            });\n        }\n    }\n    \n    function getDebtBuyer(address ins) public view returns (bool) {\n        return (buyers[ins].debt);\n    }\n    \n    \n    \n    \n  function BuyEnergy() payable public returns(int){\n      bool vari= getDebtBuyer(msg.sender);\n     /** address payable wallet;\n      wallet=address(uint160(msg.sender));**/\n        if(vari){\n            return 0;\n        }else if(msg.value>= cost){\n            owners.transfer(owners.balance+cost);\n            return 1;\n        }else{\n            return 2;\n        }\n    }\n}\n\n",
  "sourcePath": "/home/santiagop/LuminiCharge/contracts/Practice.sol",
  "compiler": {
    "name": "solc",
    "version": "0.5.0+commit.1d4f565a.Emscripten.clang"
  },
  "schemaVersion": "3.0.1",
  "updatedAt": "2019-11-12T17:40:12.270Z",
  "devdoc": {
    "methods": {}
  },
  "userdoc": {
    "methods": {}
  }
}