{
  "contractName": "Prueb",
  "abi": [
    {
      "constant": true,
      "inputs": [
        {
          "name": "",
          "type": "address"
        }
      ],
      "name": "buyers",
      "outputs": [
        {
          "name": "id",
          "type": "uint256"
        },
        {
          "name": "user",
          "type": "string"
        },
        {
          "name": "debt",
          "type": "bool"
        }
      ],
      "payable": false,
      "stateMutability": "view",
      "type": "function"
    },
    {
      "constant": false,
      "inputs": [
        {
          "name": "_isExist",
          "type": "bool"
        },
        {
          "name": "_id",
          "type": "uint256"
        },
        {
          "name": "_user",
          "type": "string"
        },
        {
          "name": "_debt",
          "type": "bool"
        }
      ],
      "name": "RegisterPerson",
      "outputs": [],
      "payable": false,
      "stateMutability": "nonpayable",
      "type": "function"
    },
    {
      "constant": true,
      "inputs": [
        {
          "name": "ins",
          "type": "address"
        }
      ],
      "name": "getDebtBuyer",
      "outputs": [
        {
          "name": "",
          "type": "bool"
        }
      ],
      "payable": false,
      "stateMutability": "view",
      "type": "function"
    },
    {
      "constant": false,
      "inputs": [],
      "name": "BuyEnergy",
      "outputs": [
        {
          "name": "",
          "type": "int256"
        }
      ],
      "payable": true,
      "stateMutability": "payable",
      "type": "function"
    }
  ],
  "bytecode": "0x6080604052671bc16d674ec8000060005533600160006101000a81548173ffffffffffffffffffffffffffffffffffffffff021916908373ffffffffffffffffffffffffffffffffffffffff16021790555034801561005d57600080fd5b506106478061006d6000396000f3fe608060405260043610610062576000357c0100000000000000000000000000000000000000000000000000000000900463ffffffff16806315bf1d611461006757806397a993aa14610085578063b98e484414610161578063bf7d1a1e146101ca575b600080fd5b61006f6102b4565b6040518082815260200191505060405180910390f35b34801561009157600080fd5b506100d4600480360360208110156100a857600080fd5b81019080803573ffffffffffffffffffffffffffffffffffffffff169060200190929190505050610396565b604051808481526020018060200183151515158152602001828103825284818151815260200191508051906020019080838360005b83811015610124578082015181840152602081019050610109565b50505050905090810190601f1680156101515780820380516001836020036101000a031916815260200191505b5094505050505060405180910390f35b34801561016d57600080fd5b506101b06004803603602081101561018457600080fd5b81019080803573ffffffffffffffffffffffffffffffffffffffff169060200190929190505050610465565b604051808215151515815260200191505060405180910390f35b3480156101d657600080fd5b506102b2600480360360808110156101ed57600080fd5b81019080803515159060200190929190803590602001909291908035906020019064010000000081111561022057600080fd5b82018360208201111561023257600080fd5b8035906020019184600183028401116401000000008311171561025457600080fd5b91908080601f016020809104026020016040519081016040528093929190818152602001838380828437600081840152601f19601f8201169050808301925050505050505091929192908035151590602001909291905050506104be565b005b6000806102c033610465565b905080156102d2576000915050610393565b6000543410151561038d57600160009054906101000a900473ffffffffffffffffffffffffffffffffffffffff1673ffffffffffffffffffffffffffffffffffffffff166108fc600054600160009054906101000a900473ffffffffffffffffffffffffffffffffffffffff1673ffffffffffffffffffffffffffffffffffffffff1631019081150290604051600060405180830381858888f19350505050158015610382573d6000803e3d6000fd5b506001915050610393565b60029150505b90565b6002602052806000526040600020600091509050806000015490806001018054600181600116156101000203166002900480601f0160208091040260200160405190810160405280929190818152602001828054600181600116156101000203166002900480156104485780601f1061041d57610100808354040283529160200191610448565b820191906000526020600020905b81548152906001019060200180831161042b57829003601f168201915b5050505050908060020160009054906101000a900460ff16905083565b6000600260008373ffffffffffffffffffffffffffffffffffffffff1673ffffffffffffffffffffffffffffffffffffffff16815260200190815260200160002060020160009054906101000a900460ff169050919050565b83156104c957600080fd5b606060405190810160405280848152602001838152602001821515815250600260003373ffffffffffffffffffffffffffffffffffffffff1673ffffffffffffffffffffffffffffffffffffffff16815260200190815260200160002060008201518160000155602082015181600101908051906020019061054c929190610576565b5060408201518160020160006101000a81548160ff02191690831515021790555090505050505050565b828054600181600116156101000203166002900490600052602060002090601f016020900481019282601f106105b757805160ff19168380011785556105e5565b828001600101855582156105e5579182015b828111156105e45782518255916020019190600101906105c9565b5b5090506105f291906105f6565b5090565b61061891905b808211156106145760008160009055506001016105fc565b5090565b9056fea165627a7a723058203d75c5d1f27a60ff9b0163afc483d1861a1fee96fcbc6d8100d4f5d960b446950029",
  "source": "pragma solidity ^0.5;\n\ncontract Prueb{\n    \n    uint cost = 2 ether;\n    address payable owners = address(uint160(msg.sender));\n /**   function Prueba() public {\n        address payable owners;\n        owners=msg.sender;\n    }**/\n    \n    struct Person {\n        uint id;\n        string user;\n        bool debt;\n    }\n    \n    mapping(address=> Person)public buyers;\n    \n    function RegisterPerson(bool _isExist, uint _id, string memory _user, bool _debt) public{\n        if(_isExist){\n             revert();\n        }else{\n            buyers[msg.sender]=Person({\n                id: _id,\n                user: _user,\n                debt: _debt\n            });\n        }\n    }\n    \n    function getDebtBuyer(address ins) public view returns (bool) {\n        return (buyers[ins].debt);\n    }\n    \n    \n    \n    \n  function BuyEnergy() payable public returns(int){\n      bool vari= getDebtBuyer(msg.sender);\n     /** address payable wallet;\n      wallet=address(uint160(msg.sender));**/\n        if(vari){\n            return 0;\n        }else if(msg.value>= cost){\n            owners.transfer(owners.balance+cost);\n            return 1;\n        }else{\n            return 2;\n        }\n    }\n}\n\n",
  "sourcePath": "/home/santiagop/LuminiCharge/contracts/Practice.sol",
  "compiler": {
    "name": "solc",
    "version": "0.5.0+commit.1d4f565a.Emscripten.clang"
  },
  "schemaVersion": "3.0.1",
  "updatedAt": "2019-11-10T18:56:15.632Z",
  "devdoc": {
    "methods": {}
  },
  "userdoc": {
    "methods": {}
  }
}